S01900004763634170706C69636174696F6E3136362E73726563ED
S11300000C942A000C9447000C9447000C9447006D
S11300100C9447000C9447000C9447000C94470040
S11300200C9447000C9447000C9447000C94470030
S11300300C9447000C9463000C9447000C94470004
S11300400C9447000C9447000C9447000C94470010
S11300500C94470011241FBECFE5D8E0DEBFCDBF0E
S113006010E0A0E6B0E0E8E9F1E002C005900D92EE
S1130070A236B107D9F720E0A2E6B0E001C01D9294
S1130080A636B207E1F70E94C1000C94CA000C9492
S1130090000090BD89B91BB88AB188618AB9579AA2
S11300A086E880BD089580916200882341F08091A4
S11300B06000882321F0D89881E48CB90895D89AF7
S11300C081E68CB908951F920F920FB60F921124F6
S11300D02F933F934F935F936F937F938F939F934C
S11300E0AF93BF93EF93FF93809165008CB9809198
S11300F06500813419F0813639F00AC081E08093BB
S113010060000E94530004C0109260000E945300DB
S1130110FF91EF91BF91AF919F918F917F916F91DB
S11301205F914F913F912F910F900FBE0F901F90B1
S11301301895989B05C081E08093630080936200CA
S1130140989909C010926300109262008091640033
S1130150181671F411C0909163008091640098178F
S113016059F080916200882319F086E48CB902C0AA
S113017086E68CB90E9453008091630080936400EA
S11301800895D89A80E895E20E94490078940E94E4
S10B01909900FDCFF894FFCFA4
S1050198010060
S9030000FC
